:1000000003308A00332B00000A108A100A1182077D
:100010008034C0349434D4340A108A100A11820710
:100020003134343437342A3432343534383430349B
:1000300033343634393423343E10C3204910C420BD
:100040005410CD202028492700003E10C820591008
:100050004E244128A01AA029CF100001C820591011
:100060004E244128A0264110D0244E100001C42265
:10007000A0264F104B24CF20A021D5202010000116
:100080004B24CF242028C82A4310CD2020284927DC
:100090000001C420CE23202C5510CC2C2E172E1757
:1000A0002E1700013E10C3204910C4205410CD204B
:1000B0002028492700013E10C82059104E2441280D
:1000C000A01AA029CF10000120102010201020100D
:1000D000201020102010201000012010C42ACE2350
:1000E000A026412AA025C820551020003D1FA02190
:1000F000D52020224110CD272E172E172E00D320D9
:100100004910CD2054104B24C12AA010A110000189
:10011000C82059104E2441282026C1242E172E17FE
:1001200000013E1F2027C8205010D3204910D12A9B
:1001300041100001D32720264127A028D52C2022BA
:100140004927481000013E1F2027C8205010CC200E
:100150004910D3205510000131105024552A2E1774
:100160002E172E172E172E170001C82059104E24B7
:100170004128A0264110D0244E100001C422A02600
:100180004F104B24CF20A021D5202010000120109B
:10019000201020102010201020102010201000010E
:1001A00020102010201020102010201020102010CF
:1001B00000012010C42ACE23A026412AA025C82051
:1001C00055102000CC2A5510CD20202849272E1765
:1001D0002E172E172E00C82059104E244128A02675
:1001E0004110D0244E100001C422A0264F104B24F1
:1001F000CF20A021D52020100001D3204910CD20F0
:1002000054104B24C12AA010A1100001C82059107D
:100210004E2441282026C1242E172E170001D82055
:1002200043104E244127A0264110D0244E1D00012A
:10023000201020102010201020102010201020103E
:100240000001D82043104E244127A0264110D0247D
:100250004E1D000120102010201020102010201012
:10026000201020100001201020102010201020103D
:100270002010201020100000493084008313000853
:1002800003194F290230F800F701F70B4529F80B45
:1002900044299730F700F70B4B29800B42290800BF
:1002A000C4014408323C031C6C2923112308831623
:1002B0008700831207150130C9003C212311230850
:1002C00083168700831207110130C9003C211230C8
:1002D000C9003C21C40A5129080049187129081293
:1002E00072290816831608128312C91879298812F0
:1002F0007A298816831688128312491981290813CE
:1003000082290817831608138312C91989298813AB
:100310008A298817831688138811831288158316F3
:100320008811831288110C30F700F70B9529982952
:10033000000008008316081183120811470EC80038
:100340000F30C8054808C9006D214708C9006D2154
:1003500008003230C7009A210530C9003C212C30FA
:10036000C7009A210530C9003C210C30C7009A21F2
:100370000130C7009A210230C9003C218A110A12BB
:10038000822B450804204407C600C7009A210800B4
:100390008316081183120815470EC8000F30C805D0
:1003A0004808C9006D214708C9006D2108000B08E5
:1003B000C4008B13831603178C170C140000000065
:1003C00083120313C41B8B1703170C087F390319FF
:1003D0002B2A0313C40003170D080313C5000317CA
:1003E0000F080313C6004408C700C82145080317B7
:1003F0008D000313460803178F0003130B08C70073
:100400008B13831603178C170C1400000000831243
:100410000313C71B8B1703170C0D0E0D7F39031920
:100420002B2A0313C40003170D080313C500031779
:100430000F080313C6004408C700C8214508031766
:100440008D000313460803178F008D0A03198F0AC6
:100450000313D729031703130800013003178D0076
:1004600083168C130C1483120C080313A4000A3097
:10047000C9003C21023003178D0083168C130C1425
:1004800083120C080313A5000A30C9003C21033075
:1004900003178D0083168C130C1483120C0803139E
:1004A000A6000A30C9003C21043003178D008316D2
:1004B0008C130C1483120C080313A7000A30C90014
:1004C0003C21053003178D0083168C130C14831206
:1004D0000C080313A8000A30C9003C210800C7011A
:1004E000440847020318982A83168510831285143E
:1004F0004608C800C80AC8030319822AFF30C90089
:100500003C217B2A4508C9003C21831685108312B3
:1005100085104608C800C80AC8030319932AFF308B
:10052000C9003C218C2A4508C9003C21C70A702A11
:100530000800FF30C4008316061483120618A42A8C
:100540000030F800C02ABE2A83168614831286184B
:10055000AD2A0130F800C02ABE2A83160615831280
:100560000619B62A0230F800C02ABE2A831686155C
:1005700083128619BE2A0330F800C02AFF30F80023
:100580007808C500450FC52AD62A2218D62AA10AFE
:100590002108093C0318D52A200DF700F70DFC307F
:1005A000F70577084507C4002214112B450F002BCF
:1005B0002218002BA101A00A0330A005A008031DEA
:1005C000E92A83160613831206178316061283126E
:1005D0000612200BF32A83160612831206168316C0
:1005E0008612831286122008023C031DFF2A8316FE
:1005F0008612831286168316061383120613112B96
:10060000450F032B082B221C082B0A30A100112BAD
:10061000450F112BA10A2108133C0318112B22109E
:10062000A1014408F8000800C4014408323C031C3E
:10063000302B2311230883168700831207150130FE
:10064000C9003C210130C9003C2123112308831635
:100650008700831207111230C9003C21C40A152BF0
:100660008A110A12D32C03081F39830071308316B4
:100670008F000F088312A001A1012210FF30A300F8
:10068000B301B401B501B601A2102211A211831663
:1006900003170908C039890003131F129F12003085
:1006A0000317880083128701880189018313203092
:1006B0000313A400A500A600A700A800A900AA0093
:1006C000AB00AC00AD00AE00AF00B000B100B200B6
:1006D0000F3083168600FF309500811300308500AF
:1006E00087008312A30001308316880085108312CF
:1006F000851050210230C400FA30C9003C21C40BDF
:100700007C2BA9290430C400FA30C9003C21C40B59
:10071000842B063003178D0083168C130C14831260
:100720000C080313B5003508093C0319AE2B22153C
:10073000C401C501C1211C3003178D0000308F009A
:100740000313D721C4010130C500C121253003178F
:100750008D0000308F000313D721C52B2D222211CD
:10076000C401C501C1212E3003178D0000308F0058
:100770000313D721C4010130C500C121373003174D
:100780008D0000308F000313D721831608148312C5
:1007900008184D2C1430C9003C218316081483120C
:1007A00008184D2C0C30C400FA30C9003C21C40B91
:1007B000D42B83160814831208184D2CC401C501CC
:1007C000C121403003178D0000308F000313D72163
:1007D000C4010130C500C121493003178D0000302C
:1007E0008F000313D7210830C400C6013230C50082
:1007F0006F22B8013808063C031C002CB80AFA2BFB
:100800000B08F7008B13380803178D00FF308C009E
:1008100083168C130C1555308D00AA308D008C1466
:100820008C18102C0C117708831203138B040630DC
:10083000C400FA30C9003C21C40B192CC401C50105
:10084000C121523003178D0000308F000313D721D0
:10085000C4010130C500C1215B3003178D00003099
:100860008F000313D721B9013908043C031C462C1F
:100870002930390784008313203080002E30390757
:100880008400831320308000B90A342C2215A21072
:10089000B301B401A211FF30B7002219822D9922B1
:1008A0007808B700370F552C812DA219632CC4018D
:1008B0000130C500C121643003178D0000308F0066
:1008C0000313D721A21537080C20F800BA003A0804
:1008D0002F3C0318602D3A08393C031C602D330867
:1008E000043C031C5D2D29303307840083133A0830
:1008F00080003308C4000130C500C121293033070E
:10090000840083130008C400C700C8210230C4005B
:10091000FA30C9003C21C40B882C3308C4000130D4
:10092000C500C1212A30C700C821B30A3308053CDD
:100930000319A214A21C5D2D3B14BC013C08043C0D
:10094000031CB42C29303C07840083130008C40026
:1009500024303C0784008313000844020319B22C9E
:100960003B10B42CBC0A9E2CC401C501C1213B1C08
:10097000DC2CB6016D3003178D0000308F0003139F
:10098000D721C4010130C500C121763003178D0085
:1009900000308F000313D7210130C400C600F430AB
:1009A000C5006F22142B1430C400FA30C9003C215A
:1009B000C40BD52C5021382D7F3003178D0000300B
:1009C0008F000313D721C4010130C500C121883035
:1009D00003178D0000308F000313D7210330C400AC
:1009E000C6015030C5006F220630C400FA30C9007D
:1009F0003C21C40BF62CB60A3608023C0318382DED
:100A0000C401C501C121913003178D0000308F0052
:100A10000313D721C4010130C500C1219A30031747
:100A20008D0000308F000313D7210630C400FA3048
:100A3000C9003C21C40B172DC401C501C121A3303D
:100A400003178D0000308F000313D721C40101303C
:100A5000C500C121AC3003178D0000308F00031397
:100A6000D721D030C400C6011E30C5006F22B601A8
:100A7000C401C501C121B53003178D0000308F00BE
:100A80000313D721C4010130C500C121BE300317B3
:100A90008D0000308F000313D721BD013D08043CB9
:100AA000031C5A2D29303D07840083132030800019
:100AB000BD0A4E2DA211B301A2102030BA00812D23
:100AC0003A082A3C0319682D3A08233C031D812D5E
:100AD000BE013E08043C031C752D29303E078400EE
:100AE000831320308000BE0A692DC4010130C50087
:100AF000C121C73003178D0000308F000313D721A9
:100B0000B3019C2F99227808B700370F882D9C2FAE
:100B1000A219962DC4010130C500C121D0300317A0
:100B20008D0000308F000313D721A21537080C2049
:100B3000F800BF003F082F3C0318742F3F08393CD2
:100B4000031C742FA21C292F3408043C031C282FDB
:100B50002E303407840083133F0880003408C4001B
:100B60000130C500C1212E303407840083130008F2
:100B7000C400C700C8210230C400FA30C9003C21BB
:100B8000C40BBD2D3408C4000130C500C1212A307A
:100B9000C700C821B40A3408053C031D262FBB1426
:100BA000C0014008043C031CE72D293040078400A5
:100BB00083130008C4002E3040078400831300080C
:100BC00044020319E52DBB10E72DC00AD12DC40145
:100BD000C501C121BB1CE52E0130C400C600F430A4
:100BE000C5006F22D93003178D0000308F0003132A
:100BF000D721C4010130C500C121E23003178D00A7
:100C000000308F000313D7210230C400FA30C9002E
:100C10003C21C40B062E0B08F7008B130130031781
:100C20008D0003132E0803178C0083168C130C15EC
:100C300055308D00AA308D008C148C181D2E0C118F
:100C40007708831203138B040A30C9003C210B0878
:100C5000F7008B13023003178D0003132F080317BF
:100C60008C0083168C130C1555308D00AA308D0026
:100C70008C148C18392E0C117708831203138B04F3
:100C80000A30C9003C210B08F7008B13033003170F
:100C90008D000313300803178C0083168C130C157A
:100CA00055308D00AA308D008C148C18552E0C11E7
:100CB0007708831203138B040A30C9003C210B0808
:100CC000F7008B13043003178D000313310803174B
:100CD0008C0083168C130C1555308D00AA308D00B6
:100CE0008C148C18712E0C117708831203138B044B
:100CF0000A30C9003C210B08F7008B13053003179D
:100D00008D000313320803178C0083168C130C1507
:100D100055308D00AA308D008C148C188D2E0C113E
:100D20007708831203138B040A30C9003C210B0897
:100D3000F7008B13063003178D0009308C008316E3
:100D40008C130C1555308D00AA308D008C148C1826
:100D5000A72E0C117708831203138B040A30C900E5
:100D60003C21C1014108043C031CC42E2930410729
:100D700084008313203080002E30410784008313C9
:100D800020308000C10AB22E2D22C401C501C1212C
:100D9000EB3003178D0000308F000313D721C401FF
:100DA0000130C500C121F43003178D0000308F00E1
:100DB0000313D721C830C9003C21FF30B700A2106F
:100DC000B401B301A2112211262F0330C400C601C1
:100DD0005030C5006F22FD3003178D0000308F00AA
:100DE0000313D721C4010130C500C1210630031708
:100DF0008D0001308F000313D7210630C400FA3074
:100E0000C9003C21C40BFF2EB401C2014208043CBE
:100E1000031C122F2E3042078400831320308000E1
:100E2000C20A062FFF30B700C401C501C1210F302F
:100E300003178D0001308F000313D72118300317DB
:100E40008D0001308F000313D721A2112030BF0085
:100E5000732F3308043C031C732F2930330784009D
:100E600083133F0880003308C4000130C500C1214E
:100E700029303307840083130008C400C700C82149
:100E80000230C400FA30C9003C21C40B422F3308A1
:100E9000C4000130C500C1212A30C700C821B30AEF
:100EA0003308053C031D712FA2140130C400C60095
:100EB000F430C5006F22C401C501C12121300317E0
:100EC0008D0001308F000313D721C4010130C5000C
:100ED000C1212A3003178D0001308F000313D72161
:100EE000B3012030BF009C2F3F082A3C03197C2F00
:100EF0003F08233C031D9C2FB301B401C3014308E9
:100F0000043C031C912F29304307840083132030B5
:100F100080002E3043078400831320308000C30AF2
:100F20007F2FC4010130C500C121333003178D006C
:0C0F300001308F000313D721C52B630094
:04400E00C42FFF3F7D
:00000001FF
;PIC16F887
;CRC=DD05  CREATED="29-Nov-25 23:33"
